:100000000C9463000C948B000C948B000C943D04B6
:100010000C943D040C943D040C948B000C948B00C8
:100020000C948B000C948B000C948B000C948B0024
:100030000C948B000C948B000C948B000C948B0014
:100040000C94F3030C948B000C94C1030C949B034D
:100050000C948B000C948B000C948B000C948B00F4
:100060000C948B000C948B000000000024002700EF
:100070002A0000000008000201000003040700003D
:1000800000000000000000000000230026002900FE
:1000900000000000250028002B00040404040404D0
:1000A0000404020202020202030303030303010227
:1000B00004081020408001020408102001020408F6
:1000C0001020B704300811241FBECFEFD8E0DEBFE8
:1000D000CDBF22E0A0E4B1E001C01D92A536B20779
:1000E000E1F711E0A0E0B1E0E0E9F1E102C0059044
:1000F0000D92A034B107D9F710E0C2E6D0E004C0F9
:100100002197FE010E94B008C136D107C9F70E94AD
:100110008E050C94BB080C940000CF92DF92EF92F6
:10012000FF920F931F93CF93DF936C017A018B01A2
:10013000C0E0D0E0CE15DF0581F0D8016D918D01D2
:10014000D601ED91FC910190F081E02DC601099559
:10015000892B11F02196EECF7E01C701DF91CF915F
:100160001F910F91FF90EF90DF90CF900895FC01C9
:10017000538D448D252F30E0842F90E0821B930B0C
:10018000541710F0CF96089501970895FC01918DB2
:10019000828D981761F0828DDF01A80FB11D5D96E9
:1001A0008C91928D9F5F9F73928F90E008958FEF57
:1001B0009FEF0895FC01918D828D981731F0828D0B
:1001C000E80FF11D858D90E008958FEF9FEF089562
:1001D000FC01918D228D892F90E0805C9F4F821BC6
:1001E00091098F73992708958FE891E00E94E800A4
:1001F00021E0892B09F420E0822F0895FC01848DF1
:10020000DF01A80FB11DA35ABF4F2C91848D90E040
:1002100001968F739927848FA689B7892C93A0891B
:10022000B1898C91837080648C93938D848D9813A5
:1002300006C00288F389E02D80818F7D8083089538
:10024000EF92FF920F931F93CF93DF93EC0181E026
:10025000888F9B8D8C8D981305C0E889F9898081E2
:1002600085FD26C0F62E0B8D10E00F5F1F4F0F731C
:100270001127E02E8C8DE8120CC00FB607FCFACFC8
:10028000E889F989808185FFF5CFCE010E94FE00C3
:10029000F1CF8B8DFE01E80FF11DE35AFF4FF08285
:1002A0009FB7F8940B8FEA89FB89808180620AC02E
:1002B0009FB7F894EE89FF896083E889F989808186
:1002C0008370806480839FBF81E090E0DF91CF9155
:1002D0001F910F91FF90EF900895CF93DF93EC0162
:1002E000888D8823C9F0EA89FB89808185FD05C056
:1002F000A889B9898C9186FD0FC00FB607FCF5CF90
:10030000808185FFF2CFA889B9898C9185FFEDCFD7
:10031000CE010E94FE00E7CFDF91CF91089580E0EB
:1003200090E0892B29F00E94F40081110C940000C8
:100330000895833081F028F4813099F08230A1F063
:1003400008958730A9F08830B9F08430D1F48091D5
:1003500080008F7D03C0809180008F778093800024
:10036000089584B58F7702C084B58F7D84BD0895CC
:100370008091B0008F7703C08091B0008F7D809313
:10038000B0000895CF93DF93282F30E0F901EE58A5
:10039000FF4F8491F901E255FF4FD491F901E656E0
:1003A000FF4FC491CC2391F081110E949901EC2F51
:1003B000F0E0EE0FFF1FEA57FF4FA591B491EC91CB
:1003C000ED2381E090E021F480E002C080E090E045
:1003D000DF91CF9108951F93CF93DF93282F30E0C3
:1003E000F901EE58FF4F8491F901E255FF4FD49186
:1003F000F901E656FF4FC491CC23C1F0162F8111AD
:100400000E949901EC2FF0E0EE0FFF1FE057FF4F25
:10041000A591B4919FB7F894111104C08C91D09517
:10042000D82302C0EC91DE2BDC939FBFDF91CF91EC
:100430001F910895CF93DF9390E0FC01E255FF4FA9
:100440002491FC01E656FF4F8491882361F190E0EE
:10045000880F991FFC01E859FF4FC591D491FC0109
:10046000E057FF4FA591B491611109C09FB7F8946F
:100470008881209582238883EC912E230BC06230E3
:1004800061F49FB7F8948881322F30958323888355
:10049000EC912E2B2C939FBF06C08FB7F894E88168
:1004A0002E2B28838FBFDF91CF9108952091870154
:1004B000309188012817390771F490918501809156
:1004C0008601981741F0E0918501F0E0E05CFE4F75
:1004D000808190E008958FEF9FEF08952FB7F894F3
:1004E00080918B0190918C01A0918D01B0918E0132
:1004F0002FBF80934C0290934D02A0934E02B09375
:100500004F0284E492E00E94560297FF26C02FB764
:10051000F89480918B0190918C01A0918D01B09104
:100520008E012FBF40914C0250914D0260914E02BE
:1005300070914F02841B950BA60BB70B409148029C
:100540005091490260914A0270914B0284179507BD
:10055000A607B707B0F28FEF9FEF089508951F9396
:10056000CF93DF93DC015C968D919C915D97009712
:1005700039F421E030E013963C932E9312973BC060
:100580005196ED91FC91529750962C915097322FA5
:1005900030951FB75E964C915E97742F727041FD37
:1005A0006095F8944081772311F0422B01C04323DA
:1005B0004083EC012197F1F748E0508160FF02C0D1
:1005C000522B01C053235083EC012197F1F766951C
:1005D000415099F78081772319F08323808302C0EB
:1005E000282B20831FBF5C968D919C915D9701976E
:1005F000F1F781E090E0DF91CF911F910895209174
:100600008701309188012817390771F4809186019C
:100610002091850190E0805C9F4F821B910960E4EE
:1006200070E00E946608089580E090E008952091AF
:1006300087013091880128173907B9F49091850115
:1006400080918601981789F0E0918501F0E0E05CE7
:10065000FE4F80812091850130E02F5F3F4F2F7347
:1006600033272093850190E008958FEF9FEF089541
:10067000089580E090E008950F931F93FC012FB739
:10068000F89480918B0190918C01A0918D01B09193
:100690008E012FBF2385211115C0408151812481F6
:1006A0004617570714F0222339F0222359F02281EC
:1006B00033816217730734F021E0238787839087A3
:1006C000A187B28723852223F9F007811085218530
:1006D0003285801B910BA20BB30B0581168120E0A4
:1006E00030E080179107A207B30770F0138680816E
:1006F00091818617970714F081E08483828193812A
:10070000681779070CF014821F910F9108950097D4
:1007100069F0FC0101900020E9F73197AF01481B17
:10072000590BBC018FE891E00C948D0080E090E0C3
:1007300008950E94B6081F920F920FB60F921124CF
:100740002F933F934F935F936F937F938F939F93D9
:10075000AF93BF93EF93FF938FE891E00E94FE0069
:10076000FF91EF91BF91AF919F918F917F916F9189
:100770005F914F913F912F910F900FBE0F901F905F
:1007800018951F920F920FB60F9211242F938F93EB
:100790009F93EF93FF93E0919F01F091A0018081DF
:1007A000E091A501F091A60182FD12C09081809197
:1007B000A8018F5F8F732091A901821751F0E091FA
:1007C000A801F0E0E157FE4F958F8093A80101C08A
:1007D0008081FF91EF919F918F912F910F900FBE8C
:1007E0000F901F9018951F920F920FB60F92112421
:1007F0002F933F938F939F93AF93BF9380918B01E0
:1008000090918C01A0918D01B0918E013091840165
:1008100023E0230F2D3720F40196A11DB11D05C043
:1008200026E8230F0296A11DB11D20938401809319
:100830008B0190938C01A0938D01B0938E018091D8
:10084000800190918101A0918201B0918301019674
:10085000A11DB11D8093800190938101A09382011D
:10086000B0938301BF91AF919F918F913F912F9151
:100870000F900FBE0F901F9018951F920F920FB6FA
:100880000F9211242F933F934F935F936F937F9316
:100890008F939F93AF93BF93EF93FF93E091870163
:1008A000F0918801309709F451C0968DA685B785DF
:1008B000858591FF04C09C91892329F447C09C91B0
:1008C000892309F043C0A389B4899C9185898095C7
:1008D00089238C93868997890197F1F7608D718DB3
:1008E000A685B785558538E020E0CB010197F1F763
:1008F000822F90E095958795282F4C91452309F0FC
:100900002068315091F7868D81FD20958091860178
:1009100090E001968F73992730918501381749F03F
:10092000A0918601B0E0A05CBE4F2C93809386011D
:1009300003C0868D8160868F828D938D0197F1F73C
:10094000A389B4899C918589892B8C93FF91EF9120
:10095000BF91AF919F918F917F916F915F914F91D7
:100960003F912F910F900FBE0F901F9018951092EE
:1009700092011092910188EE93E0A0E0B0E08093A4
:10098000930190939401A0939501B093960124E074
:1009900031E03093900120938F0125EC30E03093CB
:1009A0009C0120939B0124EC30E030939E01209326
:1009B0009D0120EC30E03093A00120939F0121ECB9
:1009C00030E03093A2012093A10122EC30E030937B
:1009D000A4012093A30126EC30E03093A6012093DC
:1009E000A5011092A8011092A9011092AA011092DB
:1009F000AB011092470210924602809348029093F6
:100A00004902A0934A02B0934B0286E191E0909391
:100A100045028093440210925B0210925A02109297
:100A20005D0210925C0210925F0210925E021092C0
:100A3000610210926002609162026E7F6D7F60932E
:100A400062026695617081E0682783E00E94EB0195
:100A500061E083E00E941A02E1EBF0E0E491E093B0
:100A60005402EDE9F0E0E491F0E0EE0FFF1FE057F3
:100A7000FF4F85919491909356028093550260E0C8
:100A800082E00E941A028091620281FD04C061E04E
:100A900082E00E94EB0182E080935002E0EBF0E004
:100AA000E491E0935102ECE9F0E0E491F0E0EE0F24
:100AB000FF1FEA57FF4F85919491909353028093C3
:100AC000520284E090E090936402809363024EE6C9
:100AD00050E0509339024093380224E630E03093DE
:100AE0003B0220933A0210923C0280E395E79093F8
:100AF0003E0280933D021092430250932D02409398
:100B00002C0230932F0220932E02109230029093E9
:100B1000320280933102109237020895CF93DF930F
:100B2000CDB7DEB7A3970FB6F894DEBF0FBECDBF2B
:100B3000789484B5826084BD84B5816084BD85B5B8
:100B4000826085BD85B5816085BD80916E008160C4
:100B500080936E001092810080918100826080936A
:100B6000810080918100816080938100809180006C
:100B70008160809380008091B10084608093B10097
:100B80008091B00081608093B00080917A00846091
:100B900080937A0080917A00826080937A008091BD
:100BA0007A00816080937A0080917A0080688093D7
:100BB0007A001092C100E0919F01F091A00182E0C3
:100BC0008083E0919B01F0919C011082E0919D0156
:100BD000F0919E018FEC80831092A701E091A30118
:100BE000F091A40186E08083E091A101F091A2013F
:100BF000808180618083E091A101F091A2018081D8
:100C000088608083E091A101F091A20180818068D9
:100C10008083E091A101F091A20180818F7D80838A
:100C200084E291E00E9487038BE291E00E948703B7
:100C300062E080E10E941A0262E081E10E941A02F1
:100C400062E08EE00E941A0262E08FE00E941A02C7
:100C500061E088E00E941A0261E089E00E941A02C5
:100C600061E08AE00E941A0261E08BE00E941A02B1
:100C700061E08CE00E941A0261E08DE00E941A029D
:100C800010925F0210925E0210925D0210925C025E
:100C900010925B0210925A028DE991E090936102EA
:100CA0008093600290915002963108F058C02DEB6D
:100CB00030E030935B0220935A022BE931E030930D
:100CC0005D0220935C022CE231E030935F022093BE
:100CD0005E0240916800983058F031E09E3008F490
:100CE00030E021E0822F01C0880F3A95EAF701C079
:100CF00084E0842B80936800983038F09E3040F078
:100D0000963148F020E030E008C02DE630E005C024
:100D10002BE630E002C02CE630E0309358022093FE
:100D20005702983030F481E001C0880F9A95EAF7B5
:100D30000EC0292F30E09E3018F42850310902C02F
:100D40002E50310981E001C0880F2A95EAF780937F
:100D5000590280916002909161020197F1F78091B0
:100D60005E0290915F02892B49F1E0918701F09139
:100D7000880122E0E434F20709F1309739F0A389C1
:100D8000B4899C918589809589238C938091620296
:100D90008E7F80936202109286011092850184E416
:100DA00092E09093880180938701E0915702F0913F
:100DB0005802908180915902892B808382E391E0CF
:100DC0000E9487038AE0482E512C612C712C80E10F
:100DD0000E94C2017C0181E10E94C2018C018EE06F
:100DE0000E94C2011C018FE00E94C2014C0184E4F8
:100DF00092E00E94FF02892B09F471C00E946E02EA
:100E0000FC0197FD0DC08D32910509F4E7C0C09734
:100E10000A9708F4E3C084E492E00E941703EECF3F
:100E2000A12CB12C6501BBA2AAA288E391E00E948B
:100E300087030B2C000CCC08DD08D7FE20C06DE228
:100E40008FE891E00E94200122273327A9012A1967
:100E50003B094C095D0919A2CE0181966C01CA01BA
:100E6000B901A30192010E947A08605DF6016293C4
:100E70006F01211531054105510589F715C0A601FE
:100E8000950119A2CE0181966C01CA01B901A30195
:100E900092010E947A08605DF60162936F0121154C
:100EA00031054105510589F7C6010E9487038EE38C
:100EB00091E00E9487036AA17BA188E392E00E94EF
:100EC0003C036AA17BA18CE292E00E943C038091EA
:100ED0003C0280938A018091300280938901E11461
:100EE000F10489F02114310471F48114910421F08A
:100EF0000115110541F003C00115110569F080913C
:100F00008A01882349F060E088E00E94EB01E11447
:100F1000F10461F460E016C061E088E00E94EB013A
:100F20000115110531F48928A9F70BC00115110528
:100F300029F080918A018111EDCF03C0232851F758
:100F4000F2CF61E089E00E94EB010115110599F0F3
:100F5000E114F10421F080918A01882361F060E0BE
:100F60008AE00E94EB01E114F104A1F080918A0172
:100F7000811110C00AC061E08AE00E94EB01E11417
:100F8000F10441F00115110589F760E08BE00E9442
:100F9000EB0107C061E08BE00E94EB01E114F1047A
:100FA00041F00115110529F460E08CE00E94EB018D
:100FB0000EC061E08CE00E94EB01EF2841F0012BB4
:100FC00031F080918901882311F060E001C061E077
:100FD0008DE00E94EB010E948F01F9CEA12CB12C73
:100FE00065011AA2E130F10509F1ED32F105E1F0F8
:100FF000CF01C0970A97D0F4AAE0B0E0A60195010E
:101000000E944C089F01FF0F440B550BDC01CB01E4
:10101000820F931FA41FB51F5C016D01E0E3AE1AA0
:10102000B108C108D10802C0F1E0FAA384E492E05B
:101030000E9417030E946E02FC01C0970A9790F26B
:10104000E130F10579F22AA1222309F4ECCED09403
:10105000C094B094A094A11CB11CC11CD11CE3CEBF
:1010600086E191E09093450280934402809187014C
:10107000909188018454924071F4E0915702F0916C
:101080005802908180915902809589238083109223
:1010900088011092870108950E945708A59F900D1E
:1010A000B49F900DA49F800D911D11240895A29FBF
:1010B000B001B39FC001A39F700D811D1124911D2C
:1010C000B29F700D811D1124911D089597FB072E6D
:1010D00016F4009407D077FD09D00E949C0807FC05
:1010E00005D03EF4909581959F4F08957095619538
:1010F0007F4F0895A1E21A2EAA1BBB1BFD010DC054
:10110000AA1FBB1FEE1FFF1FA217B307E407F507B7
:1011100020F0A21BB30BE40BF50B661F771F881F93
:10112000991F1A9469F760957095809590959B0129
:10113000AC01BD01CF010895AA1BBB1B51E107C043
:10114000AA1FBB1FA617B70710F0A61BB70B881F57
:10115000991F5A95A9F780959095BC01CD010895E6
:10116000EE0FFF1F0590F491E02D099481E090E0CF
:10117000F8940C94BB0810E0C2E6D0E004C0FE0175
:101180000E94B0082196C336D107C9F7F894FFCF63
:101190000000000020018D00B7006D01E800C600CE
:1011A000DA0000000000AF028D003903AE02FF023A
:1011B000170356024D415354455200492F4F2E2ECE
:1011C0002E00446F6E652E004C75783A20000A00A0
:00000001FF
