:100000000C9463000C948B000C948B000C940E04E5
:100010000C940E040C940E040C948B000C948B0026
:100020000C948B000C948B000C948B000C948B0024
:100030000C948B000C948B000C948B000C948B0014
:100040000C94C4030C948B000C9492030C946C03DA
:100050000C948B000C948B000C948B000C948B00F4
:100060000C9488040C948B0000000008000201002E
:100070000003040700000000000000000000000072
:1000800023002600290000000000240027002A0089
:1000900000000000250028002B00040404040404D0
:1000A0000404020202020202030303030303010227
:1000B00004081020408001020408102001020408F6
:1000C0001020B205A50711241FBECFEFD8E0DEBF78
:1000D000CDBF22E0A6E5B1E001C01D92A73EB20768
:1000E000E1F711E0A0E0B1E0E6E4F0E102C0059044
:1000F0000D92A635B107D9F710E0C2E6D0E004C0F2
:100100002197FE010E940B08C136D107C9F70E9452
:10011000C1060C9416080C9400000895CF92DF924B
:10012000EF92FF920F931F93CF93DF936C017A01AD
:100130008B01C0E0D0E0CE15DF0581F0D8016D91D4
:100140008D01D601ED91FC910190F081E02DC60169
:100150000995892B11F02196EECF7E01C701DF9121
:10016000CF911F910F91FF90EF90DF90CF90089566
:10017000FC01538D448D252F30E0842F90E0821BAD
:10018000930B541710F0CF96089501970895FC0132
:10019000918D828D981761F0828DDF01A80FB11DBE
:1001A0005D968C91928D9F5F9F73928F90E00895E2
:1001B0008FEF9FEF0895FC01918D828D981731F09C
:1001C000828DE80FF11D858D90E008958FEF9FEFF0
:1001D0000895FC01918D228D892F90E0805C9F4FC6
:1001E000821B91098F73992708958EE092E00E94F7
:1001F000E90021E0892B09F420E0822F0895FC0119
:10020000848DDF01A80FB11DA35ABF4F2C91848D9F
:1002100090E001968F739927848FA689B7892C93D4
:10022000A089B1898C91837080648C93938D848D27
:10023000981306C00288F389E02D80818F7D80832A
:100240000895EF92FF920F931F93CF93DF93EC01EA
:1002500081E0888F9B8D8C8D981305C0E889F98982
:10026000808185FD26C0F62E0B8D10E00F5F1F4F9D
:100270000F731127E02E8C8DE8120CC00FB607FC0F
:10028000FACFE889F989808185FFF5CFCE010E94F8
:10029000FF00F1CF8B8DFE01E80FF11DE35AFF4FF8
:1002A000F0829FB7F8940B8FEA89FB898081806286
:1002B0000AC09FB7F894EE89FF896083E889F989BD
:1002C00080818370806480839FBF81E090E0DF91B4
:1002D000CF911F910F91FF90EF900895CF93DF93EF
:1002E000EC01888D8823C9F0EA89FB89808185FD2E
:1002F00005C0A889B9898C9186FD0FC00FB607FC8F
:10030000F5CF808185FFF2CFA889B9898C9185FFCF
:10031000EDCFCE010E94FF00E7CFDF91CF9108958E
:1003200080E090E0892B29F00E94F50081110C9467
:100330000000089590E0FC01E859FF4F2491FC0172
:10034000E255FF4F3491FC01E656FF4FE491EE2356
:1003500009F43CC0222339F1233091F038F42130E4
:10036000A9F0223001F584B58F7D12C0273091F0BD
:100370002830A1F02430B9F4809180008F7D03C033
:10038000809180008F77809380000DC084B58F7737
:1003900084BD09C08091B0008F7703C08091B00008
:1003A0008F7D8093B000F0E0EE0FFF1FE057FF4F0E
:1003B000A591B4919FB7F894611104C08C913095C8
:1003C000382302C0EC913E2B3C939FBF08953FB76A
:1003D000F89480910A0290910B02A0910C02B091C6
:1003E0000D0226B5A89B05C02F3F19F00196A11D4F
:1003F000B11D3FBFBA2FA92F982F8827820F911DBB
:10040000A11DB11DBC01CD0142E0660F771F881F01
:10041000991F4A95D1F70895209103023091040263
:100420002817390771F49091020280910102981700
:1004300041F0E0910202F0E0EF53FE4F808190E046
:1004400008958FEF9FEF08951F93CF93DF93DC0103
:100450005C968D919C915D97009739F421E030E096
:1004600013963C932E9312973BC05196ED91FC91BD
:10047000529750962C915097322F30951FB75E9619
:100480004C915E97742F727041FD6095F894408195
:10049000772311F0422B01C043234083EC012197C5
:1004A000F1F748E0508160FF02C0522B01C0532396
:1004B0005083EC012197F1F76695415099F78081BF
:1004C000772319F08323808302C0282B20831FBF4A
:1004D0005C968D919C915D970197F1F781E090E09A
:1004E000DF91CF911F910895209103023091040272
:1004F0002817390771F4809101022091020290E0DF
:10050000805C9F4F821B910960E470E00E94C107EC
:10051000089580E090E00895209103023091040254
:1005200028173907B9F490910202809101029817B7
:1005300089F0E0910202F0E0EF53FE4F80812091BC
:10054000020230E02F5F3F4F2F73332720930202C8
:1005500090E008958FEF9FEF089585ED8093BC00A4
:100560008091BC0084FDFCCF10929B0108954091C6
:100570007701262F30E0240F311D21323105DCF4C4
:1005800020919B012430C9F4FC0180E090E08617A3
:1005900058F4309177012191DC01A95ABE4FA30F85
:1005A000B11D2C930196F3CF80917701680F609372
:1005B000770180E0089581E0089582E008958FEF4B
:1005C0009FEF08958FEF9FEF08958091560190E07F
:1005D0009195819591090895CF93DF93CB01EA011D
:1005E000642F0E94B702CE01DF91CF910895CF937F
:1005F000DF931F92CDB7DEB7698361E0CE0101962C
:100600000E94B70281E090E00F90DF91CF910895B2
:10061000089580E090E008950E9411086115710529
:1006200079F0FB0101900020E9F73197AF01461BFB
:10063000570BDC01ED91FC910280F381E02D0994D0
:1006400080E090E008958F929F92AF92BF92EF92D8
:10065000FF920F931F93CF93DF93CDB7DEB7A19790
:100660000FB6F894DEBF0FBECDBF7C01FA01CB01FF
:1006700019A2223008F42AE08E010F5D1F4F822E4E
:10068000912CA12CB12CBF01A50194010E94D5078A
:10069000F901CA01015011096A3014F4605D01C00A
:1006A000695CD8016C93232B242B252B61F7B801AF
:1006B000C7010E940E03A1960FB6F894DEBF0FBECD
:1006C000CDBFDF91CF911F910F91FF90EF90BF9021
:1006D000AF909F908F9008951F920F920FB60F9238
:1006E00011242F933F934F935F936F937F938F9337
:1006F0009F93AF93BF93EF93FF938EE092E00E949E
:10070000FF00FF91EF91BF91AF919F918F917F91EA
:100710006F915F914F913F912F910F900FBE0F906E
:100720001F9018951F920F920FB60F9211242F93BE
:100730008F939F93EF93FF93E0911E02F0911F021E
:100740008081E0912402F091250282FD12C0908107
:10075000809127028F5F8F7320912802821751F0BA
:10076000E0912702F0E0E25FFD4F958F8093270232
:1007700001C08081FF91EF919F918F912F910F90F8
:100780000FBE0F901F9018951F920F920FB60F92E9
:1007900011242F933F938F939F93AF93BF93809197
:1007A000060290910702A0910802B09109023091CF
:1007B000050223E0230F2D3720F40196A11DB11D62
:1007C00005C026E8230F0296A11DB11D2093050246
:1007D0008093060290930702A0930802B093090247
:1007E00080910A0290910B02A0910C02B0910D022F
:1007F0000196A11DB11D80930A0290930B02A09354
:100800000C02B0930D02BF91AF919F918F913F91D8
:100810002F910F900FBE0F901F9018951F920F925F
:100820000FB60F9211242F933F934F935F936F93C3
:100830007F938F939F93AF93BF93EF93FF93E09139
:100840000302F0910402309709F451C0968DA685F9
:10085000B785858591FF04C09C91892329F447C001
:100860009C91892309F043C0A389B4899C9185890F
:10087000809589238C93868997890197F1F7608DFC
:10088000718DA685B785558538E020E0CB010197AD
:10089000F1F7822F90E095958795282F4C9145236D
:1008A00009F02068315091F7868D81FD2095809167
:1008B000010290E001968F73992730910202381758
:1008C00049F0A0910102B0E0AF53BE4F2C9380934A
:1008D000010203C0868D8160868F828D938D019782
:1008E000F1F7A389B4899C918589892B8C93FF9119
:1008F000EF91BF91AF919F918F917F916F915F9198
:100900004F913F912F910F900FBE0F901F90189510
:100910001F920F920FB60F9211242F933F934F9374
:100920005F936F937F938F939F93AF93BF93EF9357
:10093000FF938091B900887F803609F49CC068F5E8
:10094000883209F45BC090F4803109F454C038F463
:10095000882309F4F2C0883009F44DC0F2C0883110
:1009600009F44CC0803209F45DC0EBC0803409F456
:1009700068C048F4803309F455C0883309F0E1C0F9
:1009800080939A01D4C0803509F44FC0883509F4AA
:100990005DC0883409F0D5C0D2C0883909F4C3C01D
:1009A000A8F4883709F467C038F4883609F463C0BE
:1009B000803709F460C0C5C0883809F4B4C08039F4
:1009C00009F45FC0803809F0BCC05BC0803B09F40B
:1009D00084C038F4803A09F466C0883A09F47DC0CE
:1009E000B0C0803C09F4A3C0883C09F4A0C0883B97
:1009F00009F486C0A6C08091C00110C09091BF01CB
:100A00008091BE01981770F5E091BF0181E08E0FD3
:100A10008093BF01F0E0E256FE4F80818093BB00DF
:100A200085EC82C080939A018AC0E091BF0181E089
:100A30008E0F8093BF018091BB00F0E0E256FE4F25
:100A400080839091BF018091BE016AC0E091BF0197
:100A500081E08E0F8093BF018091BB00F0E0E256F1
:100A6000FE4F808380919D01811169C081E0809358
:100A70009C0184EA5DC083E080939B011092990100
:100A8000CFCF80919901803208F04DC0E09199015B
:100A900081E08E0F809399018091BB00F0E0E758D0
:100AA000FE4F8083BDCF85EC8093BC0010929B01EC
:100AB00080919901803230F4E0919901F0E0E7589B
:100AC000FE4F10826091990170E089E791E0E0E0CB
:100AD000F0E009951092990134C084E080939B0165
:100AE0001092780110927701E0E0F0E00995809192
:100AF0007701811105C081E0809377011092570141
:100B0000E091780181E08E0F80937801F0E0E95A5E
:100B1000FE4F80818093BB00909178018091770196
:100B2000981708F47DCF85E88093BC000AC085EC57
:100B30008093BC0010929B0104C010929A010E9405
:100B4000AD02FF91EF91BF91AF919F918F917F91F6
:100B50006F915F914F913F912F910F900FBE0F902A
:100B60001F901895CF93DF931092110210921002EC
:100B700088EE93E0A0E0B0E080931202909313021D
:100B8000A0931402B093150224E031E030930F02D9
:100B900020930E0225EC30E030931B0220931A02C2
:100BA00024EC30E030931D0220931C0220EC30E056
:100BB00030931F0220931E0221EC30E0309321027B
:100BC0002093200222EC30E0309323022093220273
:100BD00026EC30E030932502209324021092270265
:100BE000109228021092290210922A021092AE024C
:100BF0001092AD028093AF029093B002A093B10225
:100C0000B093B20226E131E03093AC022093AB0204
:100C100029E32093D8021092DD021092DA0210929A
:100C2000D90220E130E03093DC022093DB0228EE91
:100C300033E03093E1022093E0021092BA02109266
:100C4000B9028093BB029093BC02A093BD02B09303
:100C5000BE0288E291E09093B8028093B7021092AE
:100C6000CE021092CD021092D0021092CF021092BA
:100C7000D2021092D1021092D4021092D30260914B
:100C8000D5026E7F6D7F6093D5026695617081E0BD
:100C9000682783E00E949A01E1EBF0E02491EDE9FE
:100CA000F0E08491882399F090E0880F991FFC016F
:100CB000EA57FF4FA591B491FC01E057FF4F859192
:100CC00094918FB7F894EC91E22BEC938FBFE1EB0A
:100CD000F0E0E491E093C702EDE9F0E0E491F0E0A8
:100CE000EE0FFF1FE057FF4F859194919093C9023B
:100CF0008093C802E0EBF0E02491ECE9F0E084910D
:100D00008823C1F090E0880F991FFC01EA57FF4F3C
:100D1000C591D491FC01E057FF4FA591B4919FB7C5
:100D2000F8948881E22FE0958E2388838C91E823C4
:100D3000EC939FBF8091D50281FD04C061E082E009
:100D40000E949A0182E08093C302E0EBF0E0E4911C
:100D5000E093C402ECE9F0E0E491F0E0EE0FFF1F55
:100D6000E458FF4F859194919093C6028093C502F9
:100D700084E090E09093D7028093D602DF91CF91E8
:100D80000895789484B5826084BD84B5816084BD03
:100D900085B5826085BD85B5816085BD80916E0019
:100DA000816080936E00109281008091810082604A
:100DB0008093810080918100816080938100809187
:100DC00080008160809380008091B1008460809376
:100DD000B1008091B00081608093B00080917A0072
:100DE000846080937A0080917A00826080937A0098
:100DF00080917A00816080937A0080917A00806887
:100E000080937A001092C100E0911E02F0911F02BF
:100E100082E08083E0911A02F0911B021082E0913F
:100E20001C02F0911D028FEC808310922602E0914B
:100E30002202F091230286E08083E0912002F0916B
:100E40002102808180618083E0912002F091210263
:100E5000808188608083E0912002F091210280816E
:100E600080688083E0912002F091210280818F7D53
:100E7000808366E371E08EE092E00E940E036CE3F3
:100E800071E08EE092E00E940E0363E471E08EE078
:100E900092E00E940E036AE471E08EE092E00E940C
:100EA0000E032AE040E053E060E070E08EE092E064
:100EB0000E94230363E571E08EE092E00E940E033E
:100EC00061E08DE00E949A0161E08091D6020E946B
:100ED0009A012AE040E053E060E070E087EB92E0A6
:100EE0000E94230360E08091D6020E949A0160E094
:100EF0008DE00E949A010E94E7014B015C0184EFA2
:100F0000C82EDD24D394E12CF12C0E94E701DC01F2
:100F1000CB0188199909AA09BB09883E9340A1050C
:100F2000B10598F321E0C21AD108E108F10888EE72
:100F3000880E83E0981EA11CB11CC114D104E104E9
:100F4000F10419F70E949001A6CF88E291E09093F6
:100F5000B8028093B7028091030290910402875BEC
:100F6000924071F4E091CA02F091CB02908180919D
:100F7000CC02809589238083109204021092030290
:100F8000089597FB072E16F4009407D077FD09D03B
:100F90000E94F70707FC05D03EF4909581959F4F7E
:100FA0000895709561957F4F0895A1E21A2EAA1BAE
:100FB000BB1BFD010DC0AA1FBB1FEE1FFF1FA21709
:100FC000B307E407F50720F0A21BB30BE40BF50B06
:100FD000661F771F881F991F1A9469F7609570958F
:100FE000809590959B01AC01BD01CF010895AA1B8E
:100FF000BB1B51E107C0AA1FBB1FA617B70710F004
:10100000A61BB70B881F991F5A95A9F78095909535
:10101000BC01CD010895EE0FFF1F0590F491E02D66
:10102000099481E090E0F8940C94160810E0C2E670
:10103000D0E004C0FE010E940B082196C336D10700
:06104000C9F7F894FFCF90
:101046000000000021018E00B8006E01E900C70013
:10105600DB0000000000F702EC0209038D00E50248
:10106600E202DF020000000024028E0009038D0068
:1010760074028C020C02534C41564500492F4F2EE8
:101086002E2E00446F6E652E0A0073656E64696EBF
:061096006720000D0A00B6
:00000001FF
